:020000040800F2
:1000000000500020E11A00080D1900081519000819
:100010001D190008251900082D190008000000000E
:10002000000000000000000000000000351900087A
:1000300041190008000000004D1900085919000876
:10004000291B0008291B0008291B0008291B000880
:10005000291B0008291B0008291B0008291B000870
:10006000291B0008291B0008291B0008291B000860
:10007000291B0008291B0008291B0008291B000850
:10008000291B0008291B0008291B0008291B000840
:10009000291B0008291B0008291B0008291B000830
:1000A000291B0008291B0008291B0008291B000820
:1000B000291B0008291B0008291B0008291B000810
:1000C000291B0008291B0008291B0008291B000800
:1000D000291B0008291B0008291B0008291B0008F0
:1000E000291B0008291B0008291B0008000000002C
:1000F0000000000000000000000000000000000000
:0C01000000000000000000005FF808F1A3
:10010C0010B5054C237833B9044B13B10448AFF345
:10011C0000800123237010BD80000020000000002F
:10012C002C87000808B5034B1BB103490348AFF3F8
:10013C00008008BD00000000840000202C8700080F
:10014C00034613F8012B002AFBD1181A013870470B
:10015C0080B483B000AF0346FB80084AFB88138051
:10016C00074B01221A70074B00221A70064B002213
:10017C001A7000BF0C37BD4680BC704700000020D1
:10018C0002000020A0000020A100002080B500AFDC
:10019C00054B1B8800221946044801F0AFFF0120D3
:1001AC0001F020FD00BF80BD00000020000C0140CC
:1001BC0080B500AF054B1B8801221946044801F09D
:1001CC009DFF012001F00EFD00BF80BD000000204E
:1001DC00000C014080B582B000AF0346FB7100BF3C
:1001EC00084B1B689B6803F00203022BF8D1F91D26
:1001FC004FF47A730122034802F02CFC00BF08373D
:10020C00BD4680BDA400002080B582B000AF7860F0
:10021C000B467B8000BF094B1B689B6803F00203F5
:10022C00022BF8D17A884FF47A737968034802F07C
:10023C0011FC00BF0837BD4680BD00BFA4000020E4
:10024C0080B584B002AFFF23FB7100BF0A4B1B6863
:10025C009B6803F00203022BF8D1BA1DF91D4FF471
:10026C007A7300930123044802F038FDBB791846D9
:10027C000837BD4680BD00BFA400002080B582B009
:10028C0000AF7860FFF7DCFF03461A467B681A70F4
:10029C0000BF0837BD4680BD80B582B000AF0A4BA9
:1002AC004FF4FA721A80FFF7CBFF0346FB71FB7910
:1002BC00FF2B03D0044B1B88002BF4D1FB79184681
:1002CC000837BD4680BD00BF9E00002080B584B0BD
:1002DC0000AF41F6FF73FB60FFF76AFF0023BB60C2
:1002EC0005E0FF20FFF776FFBB680133BB60BB68FE
:1002FC00092BF6DDFFF74AFF40233B7000237B7090
:10030C000023BB700023FB7000233B7195237B7192
:10031C003B4606211846FFF777FF02E0FB68013BDE
:10032C00FB60FFF78DFF0346012B02D0FB68002B0F
:10033C00F4D1FFF73DFFFF20FFF74CFF034B0122E9
:10034C001A7000BF1037BD4680BD00BFA100002051
:10035C0080B400AF034B00221A7000BFBD4680BCB6
:10036C00704700BFA100002080B400AF024B1B7887
:10037C001846BD4680BC7047A100002080B584B0F3
:10038C0000AF78603960134BC8221A80FFF758FF12
:10039C000346FB73FB7BFF2B03D10E4B1B88002BFF
:1003AC00F4D1FB7BFE2B01D000230FE07B685A1CA1
:1003BC007A601846FFF762FF3B685A1E3A60002BC2
:1003CC00F4D1FFF73DFFFFF73BFF01231846103731
:1003DC00BD4680BD9C00002080B584B000AF786025
:1003EC000B46FB700023BB73FFF756FF0346FF2B36
:1003FC0001D000232FE0FB781846FFF7EBFEFB78CB
:10040C00FD2B20D04FF400717868FFF7FDFEFFF74D
:10041C0017FFFFF715FF0BE0FFF712FF0346FB7307
:10042C00FB7B03F01F03052B06D0BB7B0133BB7397
:10043C00BB7B402BF0D900E000BF00BFFFF700FFF3
:10044C000346002BFAD0FB7B03F01F03052B01D1D5
:10045C00012300E0002318461037BD4680BD80B54F
:10046C0084B000AF03463960FB71FFF715FF0346FC
:10047C00FF2B01D0FF2342E0FB791846FFF7AAFEC1
:10048C003B681B0EDBB21846FFF7A4FE3B681B0C47
:10049C00DBB21846FFF79EFE3B681B0ADBB2184620
:1004AC00FFF798FE3B68DBB21846FFF793FEFB792B
:1004BC00402B02D19523FB7307E0FB79482B02D12B
:1004CC008723FB7301E00123FB73FB7B1846FFF7CB
:1004DC0081FEFB794C2B01D1FFF7B2FE0A23BB73D3
:1004EC00FFF7AEFE03467B7397F90D30002B05DA50
:1004FC00BB7B013BBB73BB7B002BF1D17B7B1846D9
:10050C001037BD4680BD000090B585B000AF0346E6
:10051C00FB71FB79002B01D00123D1E06A4B1B78D6
:10052C00DBB203F00203002B03D0674B1B78DBB26A
:10053C00C6E0FFF7CBFEFFF729FE0023BB730021BB
:10054C004020FFF78CFF0346012B40F0A1805F4B4E
:10055C004FF47A721A804FF4D5714820FFF77FFF61
:10056C000346012B55D10023FB730CE0FC7BFFF7FA
:10057C0067FE03461A4604F110033B4403F8082CAB
:10058C00FB7B0133FB73FB7B032BEFD9BB7A012B7A
:10059C007ED1FB7AAA2B7BD100217720FFF75FFF5E
:1005AC000346012B07D84FF080416920FFF757FF16
:1005BC000346002B04D0454B1B88002BECD100E0EC
:1005CC0000BF424B1B88002B62D000217A20FFF722
:1005DC0046FF0346002B5BD10023FB730CE0FC7B36
:1005EC00FFF72EFE03461A4604F110033B4403F8B2
:1005FC00082CFB7B0133FB73FB7B032BEFD93B7A82
:10060C0003F04003002B01D00C2300E00423BB7348
:10061C003EE000217720FFF722FF0346012B08D88C
:10062C0000216920FFF71BFF0346012B01D8022391
:10063C0000E00123BB73BB7B022B0ED10021772082
:10064C00FFF70DFF0346012B0ED800216920FFF7A1
:10065C0006FF0346002B07D10CE000214120FFF7D9
:10066C00FEFE0346002B04D0184B1B88002BE2D156
:10067C0000E000BF154B1B88002B07D04FF4007116
:10068C005020FFF7ECFE0346002B01D00023BB7378
:10069C000F4ABB7B1370FFF78BFDFFF7D1FDBB7BC4
:1006AC00002B08D0084B1B78DBB223F00103DAB225
:1006BC00054B1A7001E0FFF74BFE034B1B78DBB2C6
:1006CC0018461437BD4690BD020000209C00002047
:1006DC00A000002080B483B000AF0346FB71FB790F
:1006EC00002B01D0012302E0034B1B78DBB2184630
:1006FC000C37BD4680BC70470200002080B584B02A
:10070C0000AFB9607A603B600346FB73FB7B002B48
:10071C0002D13B68002B01D1042351E02A4B1B78FA
:10072C00DBB203F00103002B01D0032348E0274B7D
:10073C001B7803F00403002B02D17B685B027B6007
:10074C00FFF724FD3B68012B11D179685120FFF78D
:10075C0086FE0346002B29D14FF40071B868FFF7D1
:10076C000DFE0346002B21D000233B601EE0796870
:10077C005220FFF774FE0346002B17D14FF4007183
:10078C00B868FFF7FBFD0346002B0AD0BB6803F5E6
:10079C000073BB603B68013B3B603B68002BEDD1B9
:1007AC0000E000BF00214C20FFF759FEFFF700FDD1
:1007BC00FFF746FD3B68002B14BF01230023DBB27F
:1007CC0018461037BD4680BD02000020A000002056
:1007DC0080B584B000AFB9607A603B600346FB73B0
:1007EC00FB7B002B02D13B68002B01D104236BE077
:1007FC00374B1B78DBB203F00103002B01D0032332
:10080C0062E0334B1B78DBB203F00403002B01D006
:10081C00022359E02F4B1B7803F00403002B02D169
:10082C007B685B027B60FFF7B1FC3B68012B10D14E
:10083C0079685820FFF713FE0346002B3AD1FE21AE
:10084C00B868FFF7C9FD0346002B33D000233B608B
:10085C0030E0204B1B7803F00203002B07D0002163
:10086C007720FFF7FCFD39685720FFF7F8FD796812
:10087C005920FFF7F4FD0346002B1BD1FC21B8686F
:10088C00FFF7AAFD0346002B0AD0BB6803F50073E3
:10089C00BB603B68013B3B603B68002BEED100E04A
:1008AC0000BFFD210020FFF797FD0346002B01D16F
:1008BC0001233B60FFF77CFCFFF7C2FC3B68002B7D
:1008CC0014BF01230023DBB218461037BD4680BD90
:1008DC0002000020A000002090B58BB000AF0346B2
:1008EC003A60FB710B46BB713B683B62FB79002B9A
:1008FC0001D0042313E1012387F82730BB79052BA2
:10090C0024D13B6A1B78022B12D0022B1ADC002B51
:10091C0002D0012B06D015E0FFF71AFD002387F853
:10092C002730FAE0FFF7D2FC002387F82730F4E0F9
:10093C003B6A5C1CFFF718FD03462370002387F805
:10094C002730EAE0042387F82730E6E0764B1B7863
:10095C00DBB203F00103002B01D00323DFE0FFF730
:10096C0015FCBB790D2B00F2C98001A252F823F0C3
:10097C00730A0008B5090008630A0008090B00088F
:10098C00090B0008090B0008090B0008090B0008EB
:10099C00090B0008090B0008090B0008850A000860
:1009AC00A90A0008CD0A000800214920FFF757FDCD
:1009BC000346002B40F0A68007F10C0310211846CB
:1009CC00FFF7DCFC0346002B00F09C803B7B9B0973
:1009DC00DBB2012B0DD17B7D1A463B7D1B029BB2FA
:1009EC0013449BB20133FB83FB8B9A023B681A6066
:1009FC002DE07B7C03F00F03DAB2BB7DDB09DBB2AD
:100A0C001344DAB27B7D5B00DBB203F00603DBB28E
:100A1C001344DBB2023387F826303B7D9B09DBB2F3
:100A2C001A46FB7C9B009BB213449AB2BB7C9B0284
:100A3C009BB203F440639BB213449BB20133FB8320
:100A4C00FA8B97F82630093B9A403B681A600023D2
:100A5C0087F8273056E03B684FF400721A80002369
:100A6C0087F8273055E0FFF717FC0346FF2B4BD1D7
:100A7C00002387F8273047E000214920FFF7EFFCDF
:100A8C000346002B42D11021386AFFF777FC03464E
:100A9C00002B3BD0002387F8273037E000214A2079
:100AAC00FFF7DDFC0346002B32D11021386AFFF72B
:100ABC0065FC0346002B2BD0002387F8273027E05A
:100ACC0000217A20FFF7CBFC0346002B16D1002324
:100ADC0087F826300BE03C6A631C3B62FFF7B0FBE7
:100AEC000346237097F82630013387F8263097F8A1
:100AFC002630032BEFD9002387F82730042387F8FF
:100B0C00273006E000BF04E000BF02E000BF00E0B9
:100B1C0000BFFFF74DFBFFF793FB97F82730184604
:100B2C002C37BD4690BD00BF0200002080B5CCB074
:100B3C0000AF00F0F5FF00F0B9F800F053F902F047
:100B4C0055FD00F025F900F0EDF83D4806F0A4FD48
:100B5C003C4806F0A1FD3C4806F09EFD3B4806F0E3
:100B6C009BFD4FF4805000F08DFC022000F08AFCBD
:100B7C00374806F091FD3749374800F003FC3748F9
:100B8C0006F08AFD01F024F8024607F1CC03344943
:100B9C00184606F089FD07F1CC031946314800F0E0
:100BAC00F1FB314806F078FD2B4800F017FC2D487E
:100BBC0000F014FC2D4806F06FFD2D492D4800F077
:100BCC00E1FB4FF47A7001F00DF82B49294800F045
:100BDC00D9FB284800F002FC284806F05DFD2849A6
:100BEC00284800F0CFFB274800F0F8FB264806F019
:100BFC0053FD264806F050FD4FF4805224492548F9
:100C0C0000F06AF9244806F047FD022223492448E3
:100C1C0000F062F9234806F03FFD391D4FF4805374
:100C2C00C8221C4800F092FA391D0223C8221C4825
:100C3C0000F08CFA1C4806F02FFD00BFFDE700BF4A
:100C4C0044870008748700088C870008A487000874
:100C5C00D0870008F887000834880008408800080E
:100C6C00608800088888000894880008B488000808
:100C7C00D8880008F888000808890008308900081E
:100C8C00548900088089000890890008B8890008F8
:100C9C00E4890008108A0008248A0008508A000899
:100CAC007C8A0008908A0008AC8A000880B590B055
:100CBC0000AF07F1180328220021184606F0EEFDBC
:100CCC003B1D00221A605A609A60DA601A61022396
:100CDC00BB610123BB621023FB6200237B6307F122
:100CEC001803184601F022FA0346002B01D000F03D
:100CFC00C3FB0F237B600023BB600023FB6000233E
:100D0C003B6100237B613B1D0021184601F090FCE8
:100D1C000346002B01D000F0AFFB00BF4037BD46AF
:100D2C0080BD000080B500AF174B184A1A60164BF7
:100D3C004FF482725A60144B00229A60124B0022BC
:100D4C00DA60114B00221A610F4B00225A610E4BD4
:100D5C004FF400729A610C4B2022DA610A4B00228C
:100D6C001A62094B00225A62074B00229A62064B08
:100D7C000A22DA62044801F0E9FD0346002B01D097
:100D8C0000F07AFB00BF80BDA400002000380040BA
:100D9C0080B500AF114B124A1A60104B4FF4E13280
:100DAC005A600E4B00229A600C4B0022DA600B4BFF
:100DBC0000221A61094B0C225A61084B00229A61DD
:100DCC00064B0022DA61054802F0EBF90346002BD2
:100DDC0001D000F051FB00BF80BD00BFFC00002023
:100DEC000038014080B588B000AF07F11003002235
:100DFC001A605A609A60DA60354B9B69344A43F04A
:100E0C0010039361324B9B6903F01003FB60FB688A
:100E1C002F4B9B692E4A43F0200393612C4B9B690B
:100E2C0003F02003BB60BB68294B9B69284A43F045
:100E3C0008039361264B9B6903F008037B607B6876
:100E4C00234B9B69224A43F004039361204B9B691B
:100E5C0003F004033B603B6801224FF480511D48B2
:100E6C0001F04CF9012202211A4801F047F94FF424
:100E7C0080533B6101237B610023BB610323FB6136
:100E8C0007F110031946134800F0B4FF02233B612D
:100E9C0001237B610023BB610323FB6107F110037A
:100EAC0019460C4800F0A6FF4FF480433B61002329
:100EBC007B610123BB610323FB6107F1100319461E
:100ECC00044800F097FF00BF2037BD4680BD00BF2F
:100EDC0000100240000C014080B5ADF5015D8EB0F4
:100EEC0000AF07F1780343F86C0C07F1780343F873
:100EFC00701C07F1780323F8722C01224FF48051F7
:100F0C00894801F0FBF801220221874801F0F6F82C
:100F1C004FF4FA7000F066FE07F1780333F8723C78
:100F2C001846FFF715F94FF4967000F05BFE0020A1
:100F3C00FFF7EAFAC82000F055FE07F13803243B0E
:100F4C0001227A49184605F029F8034607F50152A3
:100F5C0002F13702137007F5015303F137031B78C5
:100F6C00002B45D007F1780333F8723CB3F5805F62
:100F7C0001D16F4B00E06F4B07F5015202F13702C4
:100F8C00127819466C4806F01FFB4FF4FA7000F00B
:100F9C0029FE0020FFF7B8FAC82000F023FE07F165
:100FAC003803243B01226149184604F0F7FF03463D
:100FBC0007F5015202F13702137007F5015303F1E3
:100FCC0037031B78002B13D007F1780333F8723CEE
:100FDC00B3F5805F01D1564B00E0564B07F501523B
:100FEC0002F1370212781946544806F0EDFA95E0F2
:100FFC0007F17803194607F5825303F11803103BE8
:10100C000A2251F86C1C184605F012F8034607F535
:10101C00015202F13702137007F5015303F1370344
:10102C001B78002B5FD107F1780353F8700CFFF796
:10103C0087F8024607F5825303F11803143B07F1B6
:10104C00780107F5825000F11800103851F8701C27
:10105C0005F0EAFC034607F5015202F13702137062
:10106C0007F5015303F137031B78002B1FD107F54C
:10107C00825303F11803103B184605F00EFF07F1DD
:10108C00780333F8723CB3F5805F01D1284900E056
:10109C00284907F5835303F1180353F8343C07F13F
:1010AC00780252F86C2C264806F08EFA12E007F102
:1010BC00780333F8723CB3F5805F01D11C4B00E030
:1010CC001C4B07F5015202F13702127819461D48E4
:1010DC0006F07AFA07F5825303F11803103B184611
:1010EC0005F0A9FF12E007F1780333F8723CB3F571
:1010FC00805F01D10E4B00E00E4B07F5015202F15F
:10110C00370212781946104806F05EFA0022074999
:10111C00002004F043FFC82000F064FD07F50157E0
:10112C003837BD4680BD00BF000C0140E88A00087E
:10113C00EC8A0008F48A0008FC8A00081C8B000862
:10114C00448B0008708B0008908B000890B5ADF5AF
:10115C00015D8DB000AF07F1700444F8640C07F129
:10116C00700040F8681C07F1700141F86C2C1A46AD
:10117C0007F1700323F86E2C01224FF4805179484B
:10118C0000F0BCFF01220221764800F0B7FF4FF4BB
:10119C00FA7000F027FD07F1700333F86E3C184627
:1011AC00FEF7D6FF4FF4967000F01CFD0020FFF701
:1011BC00ABF9C82000F016FD07F13003203B0122EB
:1011CC006949184604F0EAFE034607F5015202F19C
:1011DC002F02137007F5015303F12F031B78002B1B
:1011EC004BD007F1700333F86E3CB3F5805F01D13F
:1011FC005E4B00E05E4B07F5015202F12F021278B4
:10120C0019465C4806F0E0F94FF4FA7000F0EAFC7D
:10121C000020FFF779F9C82000F0E4FC07F1300357
:10122C00203B01225049184604F0B8FE034607F54E
:10123C00015202F12F02137007F5015303F12F0332
:10124C001B78002B19D007F1700333F86E3CB3F503
:10125C00805F01D1454B00E0454B07F5015202F18F
:10126C002F0212781946444806F0AEF907F17003C4
:10127C0053F8683C00221A706EE0642000F0B2FC57
:10128C0007F17003194607F5825303F11003103B65
:10129C00012251F8641C184604F0CAFE034607F5F7
:1012AC00015202F12F02137007F5015303F12F03C2
:1012BC001B78002B2FD107F5825303F11003103B41
:1012CC0007F17002114607F1700210461A4651F8E8
:1012DC006C1C50F8680C05F0B4FF07F1700333F880
:1012EC006E3CB3F5805F01D1204900E0204907F145
:1012FC00700307F1700253F8683C52F8642C1F48D5
:10130C0006F062F907F5825303F11003103B1846FF
:10131C0005F091FE18E007F1700333F86E3CB3F55D
:10132C00805F01D1114B00E0114B07F5015202F126
:10133C002F0212781946124806F046F907F170038D
:10134C0053F8683C00221A7000220749002004F070
:10135C0025FEC82000F046FC07F501573437BD4682
:10136C0090BD00BF000C0140E88A0008EC8A000820
:10137C00F48A0008FC8A00081C8B0008B88B000853
:10138C00E48B000880B582B000AF786039600F48FC
:10139C0006F082F90E4806F07FF94FF48052396856
:1013AC007868FFF799FD4FF4FA7000F01BFC0948C0
:1013BC0006F072F9022239687868FFF78DFD06484D
:1013CC0006F06AF900BF0837BD4680BD088C0008DE
:1013DC002C8C0008508C0008748C000880B5E6B08A
:1013EC0000AF07F5CC73A3F5CA731860154806F067
:1013FC0053F9154806F050F907F1D00107F5CC73F5
:10140C00A3F5CA704FF48053C8220068FFF79EFE04
:10141C004FF4FA7000F0E6FB0C4806F03DF907F1CA
:10142C00080107F5CC73A3F5CA700223C822006823
:10143C00FFF78CFE064806F02FF900BF07F5CC77B6
:10144C00BD4680BD948C0008BC8C0008E48C000860
:10145C00088D000880B582B000AF7860391D4FF060
:10146C00FF330122034801F0ECFE7B681846083775
:10147C00BD4680BDFC00002080B400AF72B600BF3A
:10148C0000BFFDE780B5ADF5825D84B000AF0246CC
:10149C0007F1500323F84A2C07F1500333F84A3C68
:1014AC00B3F5805F01D1964B00E0964B19469648F8
:1014BC0006F08AF801224FF48051944800F01EFE89
:1014CC0001220221914800F019FE4FF4FA7000F04D
:1014DC0089FB07F1500333F84A3C1846FEF738FEF7
:1014EC004FF4967000F07EFB894806F0D5F800208A
:1014FC00FFF70AF8034607F5825202F10F02137048
:10150C0007F5825303F10F031B781946814806F047
:10151C005BF8C82000F066FB07F130031C3B01228E
:10152C007D49184604F03AFD034607F5825202F154
:10153C000E02137007F5825303F10E031B78194644
:10154C00764806F041F807F5825303F10E031B7839
:10155C00002B60D1724806F09FF807F1100207F1DA
:10156C001003043B19466C4805F090FD034607F543
:10157C00825202F10D02137007F5825303F10D0331
:10158C001B78002B38D107F1500353F8403C03F57E
:10159C0080535B69023B07F1500252F8402C02F574
:1015AC008052927802FB03F35B0207F5825202F140
:1015BC000802136007F1500353F8403C03F58053C5
:1015CC009B781A4607F1500353F8443C02FB03F393
:1015DC005B0207F5825202F10402136007F5825395
:1015EC0003F104031A6807F5825303F10803196821
:1015FC004C4805F0E9FF08E007F5825303F10D03B1
:10160C001B781946484805F0DFFF002242490020AC
:10161C0004F0C4FC60E0454806F03EF807F5825340
:10162C0003F10E031B78013B0C2B51D801A252F88D
:10163C0023F000BF751600087D16000885160008FB
:10164C008D160008951600089D160008A5160008B2
:10165C00AD160008B5160008BD160008C516000822
:10166C00CD160008D5160008314806F015F833E001
:10167C00304806F011F82FE02F4806F00DF82BE05B
:10168C002E4806F009F827E02D4806F005F823E06F
:10169C002C4806F001F81FE02B4805F0FDFF1BE07D
:1016AC002A4805F0F9FF17E0294805F0F5FF13E08B
:1016BC00284805F0F1FF0FE0274805F0EDFF0BE09F
:1016CC00264805F0E9FF07E0254805F0E5FF03E0B3
:1016DC00244805F0E1FF00BF07F1500333F84A3C02
:1016EC00B3F5805F01D1064B00E0064B19461E484E
:1016FC0005F06AFF00BF07F582571037BD4680BD65
:10170C00EC8A0008F48A000818900008000C0140CC
:10171C004490000860900008E88A0008789000085F
:10172C008C90000898900008C8900008EC90000875
:10173C00F890000818910008289100083C910008C6
:10174C0048910008549100086491000874910008B5
:10175C008491000894910008A8910008B8910008A1
:10176C00C8910008D8910008E891000880B485B0B1
:10177C0000AF154B9B69144A43F001039361124B64
:10178C009B6903F00103BB60BB680F4BDB690E4A1E
:10179C0043F08053D3610C4BDB6903F080537B60C7
:1017AC007B680A4B5B68FB60FB6823F0E063FB60C3
:1017BC00FB6843F00073FB60044AFB68536000BF96
:1017CC001437BD4680BC7047001002400000014039
:1017DC0080B588B000AF786007F1100300221A6062
:1017EC005A609A60DA607B681B681C4A934231D15C
:1017FC001B4BDB691A4A43F48043D361184BDB69FA
:10180C0003F48043FB60FB68154B9B69144A43F05F
:10181C0008039361124B9B6903F00803BB60BB6820
:10182C004FF420433B6102237B610323FB6107F1EF
:10183C00100319460B4800F0DDFA4FF480433B616E
:10184C0000237B610023BB6107F110031946054897
:10185C0000F0D0FA00BF2037BD4680BD00380040F4
:10186C0000100240000C014080B588B000AF7860D9
:10187C0007F1100300221A605A609A60DA607B68E4
:10188C001B681C4A934231D11B4B9B691A4A43F487
:10189C0080439361184B9B6903F48043FB60FB68A6
:1018AC00154B9B69144A43F004039361124B9B69DB
:1018BC0003F00403BB60BB684FF400733B6102236D
:1018CC007B610323FB6107F1100319460B4800F001
:1018DC0091FA4FF480633B6100237B610023BB6171
:1018EC0007F110031946054800F084FA00BF2037B1
:1018FC00BD4680BD00380140001002400008014088
:10190C0080B400AF00BFFDE780B400AF00BFFDE7BF
:10191C0080B400AF00BFFDE780B400AF00BFFDE7AF
:10192C0080B400AF00BFFDE780B400AF00BFBD4680
:10193C0080BC704780B400AF00BFBD4680BC704710
:10194C0080B400AF00BFBD4680BC704780B500AF0F
:10195C000B4B1B88002B05D0094B1B88013B9AB203
:10196C00074B1A80074B1B88002B05D0054B1B8897
:10197C00013B9AB2034B1A8000F018F900BF80BDEE
:10198C009C0000209E00002080B586B000AFF8605F
:10199C00B9607A6000237B610AE0AFF300800146F6
:1019AC00BB685A1CBA60CAB21A707B6901337B617E
:1019BC007A697B689A42F0DB7B6818461837BD461B
:1019CC0080BD80B586B000AFF860B9607A60002346
:1019DC007B6109E0BB685A1CBA601B781846FFF79C
:1019EC0039FD7B6901337B617A697B689A42F1DB53
:1019FC007B6818461837BD4680BD80B483B000AFF5
:101A0C0078604FF0FF3318460C37BD4680BC7047EA
:101A1C0080B483B000AF786039603B684FF40052FB
:101A2C005A60002318460C37BD4680BC704780B402
:101A3C0083B000AF7860012318460C37BD4680BCDC
:101A4C00704780B485B000AFF860B9607A6000234D
:101A5C0018461437BD4680BC7047000080B586B070
:101A6C0000AF7860144A154BD31A7B617B693B61DC
:101A7C00134B1B68002B02D1114B124A1A60104BEE
:101A8C001A687B6813443A699A4207D205F054FFEE
:101A9C0003460C221A604FF0FF3309E0084B1B6819
:101AAC00FB60074B1A687B681344054A1360FB689C
:101ABC0018461837BD4680BD0050002000040000B9
:101ACC0044010020D004002080B400AF00BFBD460C
:101ADC0080BC70470C480D490D4A002302E0D458D5
:101AEC00C4500433C4188C42F9D30A4A0A4C00235C
:101AFC0001E013600432A242FBD3FFF7E5FF05F0CF
:101B0C0021FFFFF713F87047000000208000002031
:101B1C001498000880000020CC040020FEE7000090
:101B2C0080B500AF084B1B68074A43F010031360E5
:101B3C00032000F02BF90F2000F008F8FFF716FE39
:101B4C000023184680BD00BF0020024080B582B043
:101B5C0000AF7860124B1A68124B1B7819464FF481
:101B6C007A73B3FBF1F3B2FBF3F3184600F035F9DB
:101B7C000346002B01D001230EE07B680F2B0AD803
:101B8C00002279684FF0FF3000F00BF9064A7B68B1
:101B9C001360002300E0012318460837BD4680BDC2
:101BAC00040000200C0000200800002080B400AFCE
:101BBC00054B1B781A46054B1B681344034A1360EC
:101BCC0000BFBD4680BC70470C00002048010020BF
:101BDC0080B400AF024B1B681846BD4680BC7047F2
:101BEC004801002080B584B000AF7860FFF7F0FFAB
:101BFC00B8607B68FB60FB68B3F1FF3F05D00A4B14
:101C0C001B781A46FB681344FB6000BFFFF7E0FF2C
:101C1C000246BB68D31AFA689A42F7D800BF00BFD5
:101C2C001037BD4680BD00BF0C00002080B485B0CD
:101C3C0000AF78607B6803F00703FB600C4BDB683C
:101C4C00BB60BA684FF6FF031340BB60FB681A0217
:101C5C00BB68134343F0BF6343F40033BB60044AD7
:101C6C00BB68D36000BF1437BD4680BC704700BF53
:101C7C0000ED00E080B400AF044BDB681B0A03F0FE
:101C8C0007031846BD4680BC704700BF00ED00E05E
:101C9C0080B483B000AF03463960FB7197F907300D
:101CAC00002B0ADB3B68DAB20C4997F907301201BA
:101CBC00D2B20B4483F800230AE03B68DAB208493D
:101CCC00FB7903F00F03043B1201D2B20B441A76DA
:101CDC0000BF0C37BD4680BC704700BF00E100E080
:101CEC0000ED00E080B489B000AFF860B9607A60B4
:101CFC00FB6803F00703FB61FB69C3F10703042BCB
:101D0C0028BF0423BB61FB690433062B02D9FB6992
:101D1C00033B00E000237B614FF0FF32BB6902FA0A
:101D2C0003F3DA43BB681A407B699A404FF0FF31EA
:101D3C007B6901FA03F3D9437B680B4013431846C4
:101D4C002437BD4680BC704780B582B000AF786048
:101D5C007B68013BB3F1807F01D301230FE00A4A7A
:101D6C007B68013B53600F214FF0FF30FFF790FF72
:101D7C00054B00229A60044B07221A600023184678
:101D8C000837BD4680BD00BF10E000E080B582B0D2
:101D9C0000AF78607868FFF749FF00BF0837BD4691
:101DAC0080BD80B586B000AF0346B9607A60FB7326
:101DBC0000237B61FFF75EFF78617A68B968786908
:101DCC00FFF790FF024697F90F3011461846FFF7C0
:101DDC005FFF00BF1837BD4680BD80B582B000AF35
:101DEC0078607868FFF7B0FF034618460837BD46A1
:101DFC0080BD000080B48BB000AF786039600023E8
:101E0C007B6200233B6269E101227B6A02FA03F3E5
:101E1C00FB613B681B68FA691340BB61BA69FB69DB
:101E2C009A4240F058813B685B689A4A93425ED074
:101E3C00984A934275D8984A934258D0964A9342FE
:101E4C006FD8964A934252D0944A934269D8944A96
:101E5C0093424CD0924A934263D8924A934246D0D2
:101E6C00904A93425DD8122B2AD8122B59D801A232
:101E7C0052F823F0FB1E0008D51E0008E71E0008D0
:101E8C00291F00082F1F00082F1F00082F1F0008F4
:101E9C002F1F00082F1F00082F1F00082F1F0008DE
:101EAC002F1F00082F1F00082F1F00082F1F0008CE
:101EBC002F1F00082F1F0008DD1E0008F11E000850
:101ECC00794A934213D02CE03B68DB683B6229E0F3
:101EDC003B68DB6804333B6224E03B68DB68083317
:101EEC003B621FE03B68DB680C333B621AE03B68EB
:101EFC009B68002B02D104233B6213E03B689B6878
:101F0C00012B05D108233B627B68FA691A6109E051
:101F1C0008233B627B68FA695A6103E000233B6249
:101F2C0000E000BFBB69FF2B01D87B6801E07B6838
:101F3C0004337B61BB69FF2B02D87B6A9B0002E0F8
:101F4C007B6A083B9B003B617B691A680F213B69EC
:101F5C0001FA03F3DB431A40396A3B6901FA03F3D4
:101F6C001A437B691A603B685B6803F08053002B53
:101F7C0000F0B1804D4B9B694C4A43F001039361D7
:101F8C004A4B9B6903F00103BB60BB68484A7B6A00
:101F9C009B08023352F82330FB607B6A03F0030387
:101FAC009B000F2202FA03F3DB43FA681340FB6039
:101FBC007B68404A934213D07B683F4A93420DD0D2
:101FCC007B683E4A934207D07B683D4A934201D1DD
:101FDC00032306E0042304E0022302E0012300E0D3
:101FEC0000237A6A02F0030292009340FA681343CA
:101FFC00FB602F497B6A9B080233FA6841F8232067
:10200C003B685B6803F48013002B06D02D4B9A6859
:10201C002C49BB6913438B6006E02A4B9A68BB6959
:10202C00DB43284913408B603B685B6803F4001367
:10203C00002B06D0234BDA682249BB691343CB60D3
:10204C0006E0204BDA68BB69DB431E491340CB60CA
:10205C003B685B6803F40033002B06D0194B5A68BD
:10206C001849BB6913434B6006E0164B5A68BB69B1
:10207C00DB43144913404B603B685B6803F48033CB
:10208C00002B21D00F4B1A680E49BB6913430B6010
:10209C0021E000BF000032100000311000002210BF
:1020AC00000021100000121000001110001002405E
:1020BC000000014000080140000C014000100140EC
:1020CC0000140140000401400B4B1A68BB69DB4350
:1020DC00094913400B607B6A01337B623B681A68C9
:1020EC007B6A22FA03F3002B7FF48EAE00BF00BF95
:1020FC002C37BD4680BC70470004014080B483B0CF
:10210C0000AF78600B467B8013467B707B78002B8E
:10211C0003D07A887B681A6103E07B881A047B6899
:10212C001A6100BF0C37BD4680BC704780B586B0C5
:10213C0000AF78607B68002B01D1012372E27B68D1
:10214C001B6803F00103002B00F08780924B5B6847
:10215C0003F00C03042B0CD08F4B5B6803F00C03C7
:10216C00082B12D18C4B5B6803F48033B3F5803FA2
:10217C000BD1894B1B6803F40033002B6CD07B68AC
:10218C005B68002B68D101234CE27B685B68B3F57C
:10219C00803F06D1804B1B687F4A43F48033136029
:1021AC002EE07B685B68002B0CD17B4B1B687A4A5A
:1021BC0023F480331360784B1B68774A23F4802315
:1021CC0013601DE07B685B68B3F5A02F0CD1724BDC
:1021DC001B68714A43F4802313606F4B1B686E4A73
:1021EC0043F4803313600BE06B4B1B686A4A23F497
:1021FC0080331360684B1B68674A23F48023136099
:10220C007B685B68002B13D0FFF7E2FC386108E0B9
:10221C00FFF7DEFC02463B69D31A642B01D903237A
:10222C0000E25D4B1B6803F40033002BF0D014E08C
:10223C00FFF7CEFC386108E0FFF7CAFC02463B69A9
:10224C00D31A642B01D90323ECE1534B1B6803F421
:10225C000033002BF0D100E000BF7B681B6803F05B
:10226C000203002B63D04C4B5B6803F00C03002B78
:10227C000BD0494B5B6803F00C03082B1CD1464B6D
:10228C005B6803F48033002B16D1434B1B6803F0BF
:10229C000203002B05D07B681B69012B01D00123A5
:1022AC00C0E13D4B1B6823F0F8027B685B69DB00E7
:1022BC00394913430B603AE07B681B69002B20D033
:1022CC00364B01221A60FFF783FC386108E0FFF7F8
:1022DC007FFC02463B69D31A022B01D90323A1E1EF
:1022EC002D4B1B6803F00203002BF0D02A4B1B680C
:1022FC0023F0F8027B685B69DB00274913430B6012
:10230C0015E0264B00221A60FFF762FC386108E0EA
:10231C00FFF75EFC02463B69D31A022B01D903235B
:10232C0080E11D4B1B6803F00203002BF0D17B688E
:10233C001B6803F00803002B3AD07B689B69002BC9
:10234C0019D0174B01221A60FFF742FC386108E0E4
:10235C00FFF73EFC02463B69D31A022B01D903233B
:10236C0060E10D4B5B6A03F00203002BF0D00120FF
:10237C0000F0CEFA1CE00A4B00221A60FFF728FC92
:10238C0038610FE0FFF724FC02463B69D31A022B9D
:10239C0008D9032346E100BF00100240000042426E
:1023AC0080044242924B5B6A03F00203002BE9D19A
:1023BC007B681B6803F00403002B00F0A68000234D
:1023CC00FB758B4BDB6903F08053002B0DD1884BD5
:1023DC00DB69874A43F08053D361854BDB6903F09B
:1023EC008053BB60BB680123FB75824B1B6803F4F5
:1023FC008073002B18D17F4B1B687E4A43F480738B
:10240C001360FFF7E5FB386108E0FFF7E1FB0246DC
:10241C003B69D31A642B01D9032303E1754B1B6869
:10242C0003F48073002BF0D07B68DB68012B06D1A2
:10243C006F4B1B6A6E4A43F0010313622DE07B68FD
:10244C00DB68002B0CD16A4B1B6A694A23F0010331
:10245C001362674B1B6A664A23F0040313621CE089
:10246C007B68DB68052B0CD1614B1B6A604A43F01F
:10247C00040313625E4B1B6A5D4A43F00103136253
:10248C000BE05B4B1B6A5A4A23F001031362584B57
:10249C001B6A574A23F0040313627B68DB68002B2A
:1024AC0015D0FFF795FB38610AE0FFF791FB024668
:1024BC003B69D31A41F28832934201D90323B1E02C
:1024CC004B4B1B6A03F00203002BEED014E0FFF71A
:1024DC007FFB38610AE0FFF77BFB02463B69D31AAE
:1024EC0041F28832934201D903239BE0404B1B6A93
:1024FC0003F00203002BEED1FB7D012B05D13C4BED
:10250C00DB693B4A23F08053D3617B68DB69002B8A
:10251C0000F08780364B5B6803F00C03082B61D00E
:10252C007B68DB69022B46D1334B00221A60FFF724
:10253C004FFB386108E0FFF74BFB02463B69D31AAF
:10254C00022B01D903236DE0294B1B6803F00073A8
:10255C00002BF0D17B681B6AB3F5803F08D1244B6C
:10256C005B6823F400327B689B68214913434B6002
:10257C001F4B5B6823F474127B68196A7B685B6A77
:10258C000B431B4913434B601B4B01221A60FFF793
:10259C001FFB386108E0FFF71BFB02463B69D31AAF
:1025AC00022B01D903233DE0114B1B6803F0007390
:1025BC00002BF0D035E0104B00221A60FFF708FB1F
:1025CC00386108E0FFF704FB02463B69D31A022B83
:1025DC0001D9032326E0064B1B6803F00073002B84
:1025EC00F0D11EE07B68DB69012B07D1012319E0D8
:1025FC000010024000700040600042420B4B5B68D0
:10260C00FB60FB6803F480327B681B6A9A4206D13C
:10261C00FB6803F470127B685B6A9A4201D0012359
:10262C0000E0002318461837BD4680BD001002405C
:10263C0080B584B000AF786039607B68002B01D125
:10264C000123D0E06A4B1B6803F007033A689A42F7
:10265C0010D9674B1B6823F0070265493B6813438D
:10266C000B60634B1B6803F007033A689A4201D076
:10267C000123B8E07B681B6803F00203002B20D019
:10268C007B681B6803F00403002B05D0594B5B6877
:10269C00584A43F4E06353607B681B6803F00803FB
:1026AC00002B05D0534B5B68524A43F46053536084
:1026BC00504B5B6823F0F0027B689B684D491343D9
:1026CC004B607B681B6803F00103002B40D07B68D8
:1026DC005B68012B07D1474B1B6803F40033002BBD
:1026EC0015D101237FE07B685B68022B07D1414B3E
:1026FC001B6803F00073002B09D1012373E03D4BE1
:10270C001B6803F00203002B01D101236BE0394B52
:10271C005B6823F003027B685B68364913434B60AC
:10272C00FFF756FAF8600AE0FFF752FA0246FB6828
:10273C00D31A41F28832934201D9032353E02D4B33
:10274C005B6803F00C027B685B689B009A42EBD1E0
:10275C00274B1B6803F007033A689A4210D2244BAC
:10276C001B6823F0070222493B6813430B60204B84
:10277C001B6803F007033A689A4201D0012332E048
:10278C007B681B6803F00403002B08D0194B5B68B3
:10279C0023F4E0627B68DB68164913434B607B686B
:1027AC001B6803F00803002B09D0124B5B6823F461
:1027BC0060527B681B69DB000E4913434B6000F0D1
:1027CC0021F802460B4B5B681B0903F00F030A4907
:1027DC00CB5C22FA03F3094A1360094B1B681846B9
:1027EC00FFF7B4F9002318461037BD4680BD00BF73
:1027FC000020024000100240549200080400002007
:10280C000800002080B487B000AF0023FB600023D9
:10281C00BB6000237B6100237B6000233B611E4B6C
:10282C005B68FB60FB6803F00C03042B02D0082BE5
:10283C0003D027E0194B3B6127E0FB689B0C03F0AE
:10284C000F03174AD35C7B60FB6803F48033002BC7
:10285C0010D0114B5B685B0C03F00103114AD35C85
:10286C00BB607B680D4A03FB02F2BB68B2FBF3F35F
:10287C007B6104E07B680C4A02FB03F37B617B69A0
:10288C003B6102E0054B3B6100BF3B6918461C37BE
:10289C00BD4680BC704700BF0010024000127A0099
:1028AC006C9200087C92000800093D0080B400AFD7
:1028BC00024B1B681846BD4680BC704704000020C4
:1028CC0080B500AFFFF7F2FF0246054B5B681B0AB1
:1028DC0003F007030349CB5C22FA03F3184680BDCF
:1028EC00001002406492000880B500AFFFF7DEFFD5
:1028FC000246054B5B68DB0A03F007030349CB5C1C
:10290C0022FA03F3184680BD0010024064920008BE
:10291C0080B485B000AF78600A4B1B680A4AA2FBF2
:10292C0003235B0A7A6802FB03F3FB6000BFFB68BE
:10293C005A1EFA60002BF9D100BF00BF1437BD46F8
:10294C0080BC704704000020D34D621080B582B06B
:10295C0000AF78607B68002B01D1012376E07B68A7
:10296C005B6A002B08D17B685B68B3F5827F09D06A
:10297C007B680022DA6105E07B6800221A617B68C3
:10298C0000225A617B6800229A627B6893F851306E
:10299C00DBB2002B06D17B68002283F850207868CC
:1029AC00FEF716FF7B68022283F851207B681B68B8
:1029BC001A687B681B6822F040021A607B685B68AF
:1029CC0003F482727B689B6803F404431A437B68AC
:1029DC00DB6803F400631A437B681B6903F0020392
:1029EC001A437B685B6903F001031A437B689B699C
:1029FC0003F400731A437B68DB6903F038031A4352
:102A0C007B681B6A03F0800342EA03017B689B6AC4
:102A1C0003F400527B681B680A431A607B689B694D
:102A2C001A0C7B681B6802F004025A607B681B68F6
:102A3C00DA697B681B6822F40062DA617B68002229
:102A4C005A657B68012283F8512000231846083709
:102A5C00BD4680BD80B588B000AFF860B9603B6002
:102A6C001346FB80FFF7B4F8F861FB887B83FB68A7
:102A7C0093F85130DBB2012B01D002232AE1BB6861
:102A8C00002B02D0FB88002B01D1012322E1FB6833
:102A9C0093F85030012B01D102231BE1FB6801227A
:102AAC0083F85020FB68032283F85120FB68002236
:102ABC005A65FB68BA681A63FB68FA889A86FB68E1
:102ACC00FA88DA86FB6800229A63FB6800229A87F0
:102ADC00FB680022DA87FB6800225A64FB6800223C
:102AEC001A64FB689B68B3F5004F0FD1FB681B6839
:102AFC001A68FB681B6822F040021A60FB681B68AE
:102B0C001A68FB681B6842F480421A60FB681B68F9
:102B1C001B6803F04003402B07D0FB681B681A6846
:102B2C00FB681B6842F040021A60FB68DB68B3F577
:102B3C00006F52D1FB685B68002B02D07B8B012BA2
:102B4C0045D1FB681B6B1A88FB681B68DA60FB6855
:102B5C001B6B9A1CFB681A63FB68DB8E9BB2013BF8
:102B6C009AB2FB68DA8632E0FB681B689B6803F05C
:102B7C000203022B12D1FB681B6B1A88FB681B68C3
:102B8C00DA60FB681B6B9A1CFB681A63FB68DB8EB4
:102B9C009BB2013B9AB2FB68DA8618E0FFF718F893
:102BAC000246FB69D31A3A689A4203D83B68B3F1E0
:102BBC00FF3F02D13B68002B09D1FB68012283F84F
:102BCC005120FB68002283F85020032382E0FB682D
:102BDC00DB8E9BB2002BC7D153E0FB685B68002BEC
:102BEC0002D07B8B012B47D1FB681A6BFB681B68EF
:102BFC000C3312781A70FB681B6B5A1CFB681A6337
:102C0C00FB68DB8E9BB2013B9AB2FB68DA8633E041
:102C1C00FB681B689B6803F00203022B13D1FB6853
:102C2C001A6BFB681B680C3312781A70FB681B6BF1
:102C3C005A1CFB681A63FB68DB8E9BB2013B9AB291
:102C4C00FB68DA8618E0FEF7C3FF0246FB69D31A6D
:102C5C003A689A4203D83B68B3F1FF3F02D13B6814
:102C6C00002B09D1FB68012283F85120FB6800225C
:102C7C0083F8502003232DE0FB68DB8E9BB2002BE6
:102C8C00C6D1FA693968F86800F05AFA0346002B85
:102C9C0002D0FB6820225A65FB689B68002B0AD186
:102CAC0000237B61FB681B68DB687B61FB681B682E
:102CBC009B687B617B69FB68012283F85120FB6870
:102CCC00002283F85020FB685B6D002B01D00123A0
:102CDC0000E0002318462037BD4680BD80B58AB081
:102CEC0000AFF860B9607A607B8001237B62FEF7ED
:102CFC006FFF3862FB6893F85130FB77FB685B68B9
:102D0C00BB617B88FB82FB7F012B0CD0BB69B3F5CD
:102D1C00827F06D1FB689B68002B02D1FB7F042BC2
:102D2C0001D002237FE1BB68002B05D07B68002B10
:102D3C0002D07B88002B01D1012374E1FB6893F84E
:102D4C005030012B01D102236DE1FB68012283F885
:102D5C005020FB6893F85130DBB2042B03D0FB6896
:102D6C00052283F85120FB6800225A65FB687A68BB
:102D7C009A63FB687A88DA87FB687A889A87FB689B
:102D8C00BA681A63FB687A88DA86FB687A889A864E
:102D9C00FB6800221A64FB6800225A64FB681B68FB
:102DAC001B6803F04003402B07D0FB681B681A68B4
:102DBC00FB681B6842F040021A60FB68DB68B3F5E5
:102DCC00006F7ED1FB685B68002B02D0FB8A012B65
:102DDC006CD1FB681B6B1A88FB681B68DA60FB689C
:102DEC001B6B9A1CFB681A63FB68DB8E9BB2013B66
:102DFC009AB2FB68DA8659E0FB681B689B6803F0A3
:102E0C000203022B1BD1FB68DB8E9BB2002B16D06E
:102E1C007B6A012B13D1FB681B6B1A88FB681B6840
:102E2C00DA60FB681B6B9A1CFB681A63FB68DB8E11
:102E3C009BB2013B9AB2FB68DA8600237B62FB688B
:102E4C001B689B6803F00103012B19D1FB68DB8F16
:102E5C009BB2002B14D0FB681B68DA68FB689B6B79
:102E6C0092B21A80FB689B6B9A1CFB689A63FB6896
:102E7C00DB8F9BB2013B9AB2FB68DA8701237B6242
:102E8C00FEF7A6FE02463B6AD31A3A6B9A420DD85D
:102E9C003B6BB3F1FF3F09D0FB68012283F8512053
:102EAC00FB68002283F850200323BCE0FB68DB8E18
:102EBC009BB2002BA0D1FB68DB8F9BB2002B9BD16C
:102ECC0082E0FB685B68002B02D0FB8A012B71D17E
:102EDC00FB681A6BFB681B680C3312781A70FB6862
:102EEC001B6B5A1CFB681A63FB68DB8E9BB2013BA5
:102EFC009AB2FB68DA865DE0FB681B689B6803F09E
:102F0C000203022B1CD1FB68DB8E9BB2002B17D06B
:102F1C007B6A012B14D1FB681A6BFB681B680C33A2
:102F2C0012781A70FB681B6B5A1CFB681A63FB68DF
:102F3C00DB8E9BB2013B9AB2FB68DA8600237B6284
:102F4C00FB681B689B6803F00103012B19D1FB681C
:102F5C00DB8F9BB2002B14D0FB681B68DA68FB6814
:102F6C009B6BD2B21A70FB689B6B5A1CFB689A6302
:102F7C00FB68DB8F9BB2013B9AB2FB68DA870123BB
:102F8C007B62FEF725FE02463B6AD31A3A6B9A42E5
:102F9C0003D83B6BB3F1FF3F02D13B6B002B09D144
:102FAC00FB68012283F85120FB68002283F8502033
:102FBC00032338E0FB68DB8E9BB2002B9CD1FB68B3
:102FCC00DB8F9BB2002B97D13A6A396BF86800F013
:102FDC00B7F80346002B08D0FB6820225A65FB6823
:102FEC00002283F8502001231DE0FB689B68002B16
:102FFC000AD100233B61FB681B68DB683B61FB6803
:10300C001B689B683B613B69FB68012283F851207C
:10301C00FB68002283F85020FB685B6D002B01D00D
:10302C00012300E0002318462837BD4680BD000070
:10303C0080B588B000AFF860B9603B601346FB7197
:10304C00FEF7C6FD0246BB6A9B1A3A681344FB6145
:10305C00FEF7BEFDB861394B1B685B011B0DFA69AD
:10306C0002FB03F37B6154E03B68B3F1FF3F50D0AC
:10307C00FEF7AEFD0246BB69D31AFA699A4202D931
:10308C00FB69002B3DD1FB681B685A68FB681B6809
:10309C0022F0E0025A60FB685B68B3F5827F11D1C5
:1030AC00FB689B68B3F5004F04D0FB689B68B3F5D5
:1030BC00806F07D1FB681B681A68FB681B6822F0DD
:1030CC0040021A60FB689B6AB3F5005F0FD1FB6886
:1030DC001B681A68FB681B6822F400521A60FB68B4
:1030EC001B681A68FB681B6842F400521A60FB6884
:1030FC00012283F85120FB68002283F8502003231F
:10310C0017E07B69002B01D10023FB617B69013B3C
:10311C007B61FB681B689A68BB681340BA689A426B
:10312C000CBF01230023DBB21A46FB799A429BD1D8
:10313C00002318462037BD4680BD00BF0400002088
:10314C0080B586B002AFF860B9607A607B68009396
:10315C00BB6801220221F868FFF76AFF0346002BC7
:10316C0007D0FB685B6D43F02002FB685A650323B4
:10317C0013E07B680093BB6800228021F868FFF79E
:10318C0057FF0346002B07D0FB685B6D43F0200212
:10319C00FB685A65032300E0002318461037BD4630
:1031AC0080BD80B582B000AF78607B68002B01D108
:1031BC00012342E07B6893F84130DBB2002B06D14F
:1031CC007B68002283F840207868FEF74DFB7B6813
:1031DC00242283F841207B681B68DA687B681B68B3
:1031EC0022F40052DA60786800F072F97B681B6890
:1031FC001A697B681B6822F490421A617B681B6811
:10320C005A697B681B6822F02A025A617B681B682A
:10321C00DA687B681B6842F40052DA607B68002233
:10322C005A647B68202283F841207B68202283F833
:10323C0042207B6800225A63002318460837BD469B
:10324C0080BD80B58AB002AFF860B9603B601346B0
:10325C00FB8000237B61FB6893F84130DBB2202BB1
:10326C0075D1BB68002B02D0FB88002B01D1012348
:10327C006EE0FB6800225A64FB68212283F841202F
:10328C00FEF7A6FC7861FB68FA889A84FB68FA88DA
:10329C00DA84FB689B68B3F5805F08D1FB681B6917
:1032AC00002B04D10023FB61BB68BB6103E0BB684E
:1032BC00FB610023BB612EE03B6800937B6900221D
:1032CC008021F86800F048F80346002B05D0FB6815
:1032DC00202283F8412003233AE0FB69002B0BD119
:1032EC00BB691B881A46FB681B68C2F308025A604C
:1032FC00BB690233BB6107E0FB691A78FB681B688A
:10330C005A60FB690133FB61FB68DB8C9BB2013BB0
:10331C009AB2FB68DA84FB68DB8C9BB2002BCBD1B6
:10332C003B6800937B6900224021F86800F014F898
:10333C000346002B05D0FB68202283F84120032391
:10334C0006E0FB68202283F84120002300E00223E2
:10335C0018462037BD4680BD80B586B000AFF860FA
:10336C00B9603B601346FB713BE03B6AB3F1FF3F36
:10337C0037D0FEF72DFC02463B68D31A3A6A9A42C4
:10338C0002D33B6A002B01D103233AE0FB681B6894
:10339C00DB6803F00403002B23D0BB68802B20D008
:1033AC00BB68402B1DD0FB681B681B6803F008032F
:1033BC00082B16D100237B61FB681B681B687B61A3
:1033CC00FB681B685B687B617B69F86800F01DF823
:1033DC00FB6808225A64FB68002283F84020012312
:1033EC000FE0FB681B681A68BB681340BA689A4206
:1033FC000CBF01230023DBB21A46FB799A42B4D0EE
:10340C00002318461837BD4680BD80B495B000AF78
:10341C0078607B681B680C337B637B6B53E8003FE5
:10342C003B633B6B23F49073FB647B681B680C332E
:10343C00FA6C3A64FB63F96B3A6C41E80023BB63AA
:10344C00BB6B002BE5D17B681B6814333B623B6A7A
:10345C0053E8003FFB61FB6923F00103BB647B680D
:10346C001B681433BA6CFA62BB62B96AFA6A41E837
:10347C0000237B627B6A002BE5D17B681B6B012BE5
:10348C0019D17B681B680C33FB60FB6853E8003F69
:10349C00BB60BB6823F010037B647B681B680C3338
:1034AC007A6CBA617B617969BA6941E800233B6146
:1034BC003B69002BE5D17B68202283F842207B6896
:1034CC0000221A6300BF5437BD4680BC7047000011
:1034DC0080B584B000AF78607B681B681B6923F4EF
:1034EC0040517B68DA687B681B680A431A617B6809
:1034FC009A687B681B691A437B685B691343BB60E2
:10350C007B681B68DB6823F4B05323F00C037A68E8
:10351C001268B9680B43D3607B681B685B6923F442
:10352C0040717B689A697B681B680A435A617B68A7
:10353C001B682C4A934203D1FFF7D6F9F86002E0DE
:10354C00FFF7BEF9F860FA6813469B0013449A0023
:10355C001A447B685B689B00B2FBF3F3224AA2FB24
:10356C0003235B091901FA6813469B0013449A0064
:10357C001A447B685B689B00B2FBF3F21A4BA3FB0B
:10358C0002035B09642000FB03F3D31A1B013233E3
:10359C00154AA2FB03235B0903F0F0031944FA68F4
:1035AC0013469B0013449A001A447B685B689B008B
:1035BC00B2FBF3F20C4BA3FB02035B09642000FB90
:1035CC0003F3D31A1B013233074AA2FB03235B0913
:1035DC0003F00F027B681B680A449A6000BF103727
:1035EC00BD4680BD003801401F85EB5180B500AF52
:1035FC000449054803F0AEFE03461A46034B1A7005
:10360C0000BF80BD50010020100000204C010020A4
:10361C0080B400AF00231846BD4680BC704780B50F
:10362C0082B000AF0346FB71FB791846FCF76CFFC8
:10363C00034618460837BD4680BD80B582B000AF42
:10364C000346FB71FB791846FDF744F80346184610
:10365C000837BD4680BD80B584B000AFB9607A60D4
:10366C003B600346FB73F87B3B687A68B968FDF7EF
:10367C0045F8034618461037BD4680BD80B584B06A
:10368C0000AFB9607A603B600346FB73F87B3B6824
:10369C007A68B968FDF79CF8034618461037BD46A2
:1036AC0080BD80B582B000AF03463A60FB710B461B
:1036BC00BB71B979FB793A681846FDF70DF90346E9
:1036CC0018460837BD4680BD80B584B000AF0346B0
:1036DC00FB71FB79084A9B0013445B685B68FA79C1
:1036EC0005490A44127A104698470346FB73FB7B44
:1036FC0018461037BD4680BD7403002080B584B0D9
:10370C0000AF0346FB710023FB73FB790D4AD35CBE
:10371C00002B11D1FB790B4A0121D154FB79094AB9
:10372C009B0013445B681B68FA7906490A44127AB9
:10373C00104698470346FB73FB7B18461037BD4673
:10374C0080BD00BF7403002090B587B000AFB96096
:10375C007A603B600346FB73FB7B0A4A9B00134475
:10376C005B689C68FB7B074A1344187A3B687A6851
:10377C00B968A0470346FB75FB7D18461C37BD4650
:10378C0090BD00BF7403002090B587B000AFB96046
:10379C007A603B600346FB73FB7B0A4A9B00134435
:1037AC005B68DC68FB7B074A1344187A3B687A68D1
:1037BC00B968A0470346FB75FB7D18461C37BD4610
:1037CC0090BD00BF7403002080B584B000AF0346E9
:1037DC003A60FB710B46BB71FB79094A9B001344A1
:1037EC005B681B69FA7906490A44107AB9793A6818
:1037FC0098470346FB73FB7B18461037BD4680BDCC
:10380C007403002080B487B000AFF860B9607A60B0
:10381C00FB687B61BB683B6107E03A69531C3B6109
:10382C007B69591C796112781A707B685A1E7A6010
:10383C00002BF2D100BF00BF1C37BD4680BC7047C7
:10384C0080B487B000AFF860B9607A60FB687B61C8
:10385C0005E07B695A1C7A61BA68D2B21A707B682F
:10386C005A1E7A60002BF4D100BF00BF1C37BD4636
:10387C0080BC704780B489B000AFF860B9607A60E2
:10388C00FB68FB61BB68BB6100237B6100BF7B688D
:10389C005A1E7A60002B0DD0FB695A1CFA611B78FA
:1038AC001946BB695A1CBA611B78CB1A7B617B69C0
:1038BC00002BECD07B6918462437BD4680BC704782
:1038CC0080B483B000AF7860396002E07B6801336C
:1038DC007B607B681B78002B05D07B681B781A46B5
:1038EC003B689342F2D17B681B7818460C37BD4677
:1038FC0080BC704780B485B000AF7860396000231D
:10390C00BB60BB68FB603BE03149FA6813465B0067
:10391C0013449B000B441B68002B2CD02C49FA68D9
:10392C0013465B0013449B000B441A687B6803F539
:10393C0080531B689A4220D12549FA6813465B00D4
:10394C0013449B000B4404331A687B6803F58053C3
:10395C009B689A4211D11E49FA6813465B001344C6
:10396C009B000B4408331A887B6803F58053DB8873
:10397C009A4202D107E00123BB60FB680133FB6074
:10398C00FB68012BC0D9FB68022B09D1BB68002B4B
:10399C0002D13B68022B01D1002313E0122311E06A
:1039AC003B68002B0BD10A49FA6813465B001344A1
:1039BC009B000B440A331B88B3F5807F01D1102385
:1039CC0000E0002318461437BD4680BC704700BF8A
:1039DC005C01002080B483B000AF00237B6002E068
:1039EC007B6801337B607B68012B09D80A497A68B4
:1039FC0013465B0013449B000B441B68002BEFD158
:103A0C007B68022B14BF01230023DBB218460C3752
:103A1C00BD4680BC704700BF5C01002080B485B0FF
:103A2C0000AF786039600023FB602EE05849FA68DB
:103A3C0013465B0013449B000B441A687B6803F528
:103A4C0080531B689A421DD15149FA6813465B009A
:103A5C0013449B000B4404331A687B6803F58053B2
:103A6C009B689A420ED14A49FA6813465B0013448C
:103A7C009B000B4408331A887B6803F58053DB8862
:103A8C009A4206D0FB680133FB60FB68012BCDD951
:103A9C0000E000BFFB68022B48D10023FB6002E072
:103AAC00FB680133FB60FB68012B09D83849FA68C5
:103ABC0013465B0013449B000B441B68002BEFD197
:103ACC00FB68022B01D100235DE07B6803F580537A
:103ADC0019682F48FA6813465B0013449B00034493
:103AEC0019607B6803F5805399682948FA68134676
:103AFC005B0013449B000344043319607B6803F59B
:103B0C008053D8882249FA6813465B0013449B0003
:103B1C000B44083302461A801D49FA6813465B00B1
:103B2C0013449B000B440A3300221A803B68002B81
:103B3C000CD01749FA6813465B0013449B000B44E6
:103B4C000A331B88002B01D000231CE03B68002BA0
:103B5C000BD10F49FA6813465B0013449B000B44CE
:103B6C000A331B88013399B201E04FF48071084885
:103B7C00FA6813465B0013449B0003440A330A465D
:103B8C001A80FB68013318461437BD4680BC704759
:103B9C005C01002080B485B000AF78607B68013B8D
:103BAC007B607B68012B2ED81B497A6813465B001F
:103BBC0013449B000B440A331B88FB81FB89B3F530
:103BCC00807F01D10023FB81FB89002B02D0FB8974
:103BDC00013BFB8110497A6813465B0013449B0040
:103BEC000B440A33FA891A80FB89002B08D10A4945
:103BFC007A6813465B0013449B000B4400221A6046
:103C0C0000237B7301E002237B737B7B1846143704
:103C1C00BD4680BC704700BF5C01002080B485B0FD
:103C2C0000AF78600023FB6016E01049FA68134679
:103C3C005B0013449B000B441B687A689A4208D1C2
:103C4C000A49FA6813465B0013449B000B4400229C
:103C5C001A60FB680133FB60FB68012BE5D900BFE0
:103C6C0000BF1437BD4680BC704700BF5C0100200C
:103C7C0080B586B000AF78600023FB737B6803F5DA
:103C8C0080531B79002B40D07B6803F58053DB6A93
:103C9C007B617B6803F580535878796801237A69D6
:103CAC00FFF772FD0346002B02D00123FB732CE0BF
:103CBC007B6803F5805300221A717B6803F58053EF
:103CCC001B6A7A69D21A7B6803F580539B699A4206
:103CDC001BD27B6803F58053DB783B6112E07B6879
:103CEC0003F580539B697A6913447B617B6803F508
:103CFC0080535878796801237A69FFF745FD3B6951
:103D0C00013B3B613B69012BE9D8FB7B184618371B
:103D1C00BD4680BD80B584B000AF786039600023AB
:103D2C00FB737B6803F58053DB6A3A689A421ED0BA
:103D3C007868FFF79DFF0346FB73FB7B002B16D1C6
:103D4C007B6803F580535878796801233A68FFF74C
:103D5C00FBFC0346002B04D04FF0FF333B600123E8
:103D6C00FB737B6803F580531A463B68D362FB7B7D
:103D7C0018461037BD4680BD80B584B000AF786062
:103D8C007868FFF775FF0346FB73FB7B002B40F055
:103D9C00AD807B6803F580531B78032B40F0988033
:103DAC007B6803F580535B79012B40F09180786838
:103DBC007B6803F580535B891A460021FFF740FDB1
:103DCC007B68552283F8FE217B68AA2283F8FF21A9
:103DDC007B6852221A707B6852225A707B6861226F
:103DEC009A707B684122DA707B68722283F8E42136
:103DFC007B68722283F8E5217B68412283F8E621F7
:103E0C007B68612283F8E7217B6803F580531B698B
:103E1C00DAB27B6883F8E8217B6803F580531B6971
:103E2C009BB21B0A9BB2DAB27B6883F8E9217B68F0
:103E3C0003F580531B691B0CDAB27B6883F8EA210B
:103E4C007B6803F580531B691B0EDAB27B6883F821
:103E5C00EB217B6803F58053DB68DAB27B6883F86F
:103E6C00EC217B6803F58053DB689BB21B0A9BB289
:103E7C00DAB27B6883F8ED217B6803F58053DB684D
:103E8C001B0CDAB27B6883F8EE217B6803F5805358
:103E9C00DB681B0EDAB27B6883F8EF217B6803F5D5
:103EAC008053DB6901337A6802F58052D3627B68F8
:103EBC0003F58053587879687B6803F58053DA6A88
:103ECC000123FFF761FC7B6803F5805300225A71D4
:103EDC007B6803F580535B78002200211846FFF7BE
:103EEC0073FC0346002B01D00123FB73FB7B1846AC
:103EFC001037BD4680BD80B483B000AF78603960A8
:103F0C003B68023B3B607B6803F580535B69023B7B
:103F1C003A689A4201D300230CE07B6803F5805386
:103F2C009B781A463B6803FB02F27B6803F58053CF
:103F3C009B6A134418460C37BD4680BC704780B54D
:103F4C0086B000AF786039603B68012B06D97B687E
:103F5C0003F580535B693A689A4202D301237B6173
:103F6C00E4E04FF0FF337B617B6803F580531B78F3
:103F7C00032B00F09880032B00F3CE80012B02D092
:103F8C00022B5ED0C8E03B68FB60FB685B08FA68FC
:103F9C001344FB607B6803F580531A6A7B6803F556
:103FAC0080535B891946FB68B3FBF1F31344194644
:103FBC007868FFF7AFFE0346002B40F0B080FB683B
:103FCC005A1CFA607A6802F580525289B3FBF2F1FE
:103FDC0001FB02F29B1A7A68D35CBB607B6803F529
:103FEC0080531A6A7B6803F580535B891946FB681A
:103FFC00B3FBF1F3134419467868FFF78BFE0346C5
:10400C00002B40F08E807B6803F580535B891A4649
:10401C00FB68B3FBF2F101FB02F29B1A7A68D35CEA
:10402C001B02BA681343BB603B6803F00103002B0F
:10403C0002D0BB681B0902E0BB68C3F30B037B61B6
:10404C0074E07B6803F580531A6A7B6803F5805330
:10405C005B895B089BB219463B68B3FBF1F31344D5
:10406C0019467868FFF756FE0346002B5BD13B6878
:10407C005B007A6802F580525289B3FBF2F101FBC6
:10408C0002F29B1A7A6813443B613B6901331B783B
:10409C001BB21B021AB23B691B781BB213431BB237
:1040AC009BB27B6142E07B6803F580531A6A7B68A4
:1040BC0003F580535B899B089BB219463B68B3FBA5
:1040CC00F1F3134419467868FFF724FE0346002BDE
:1040DC002BD13B689B007A6802F580525289B3FB66
:1040EC00F2F101FB02F29B1A7A6813443B613B69C3
:1040FC0003331B781A063B6902331B781B041A43E3
:10410C003B6901331B781B0213433A691278134342
:10411C0023F070437B6109E001237B6106E000BF63
:10412C0004E000BF02E000BF00E000BF7B6918465E
:10413C001837BD4680BD80B588B000AFF860B96057
:10414C007A60BB68012B06D9FB6803F580535B6969
:10415C00BA689A4202D30223FB773AE1FB6803F573
:10416C0080531B78032B00F0D080032B00F32781A6
:10417C00012B03D0022B00F08F8020E1BB687B6108
:10418C007B695B087A6913447B61FB6803F5805398
:10419C001A6AFB6803F580535B8919467B69B3FB8C
:1041AC00F1F313441946F868FFF7B4FD0346FB77A7
:1041BC00FB7F002B40F006817B695A1C7A61FA6800
:1041CC0002F580525289B3FBF2F101FB02F29B1A09
:1041DC00FA681344BB61BB6803F00103002B0DD0DC
:1041EC00BB691B785BB203F00F035AB27B685BB2FE
:1041FC001B015BB213435BB2DBB201E07B68DBB249
:10420C00BA691370FB6803F5805301221A71FB68BD
:10421C0003F580531A6AFB6803F580535B891946D2
:10422C007B69B3FBF1F313441946F868FFF772FD91
:10423C000346FB77FB7F002B40F0C680FB6803F541
:10424C0080535B891A467B69B3FBF2F101FB02F2E6
:10425C009B1AFA681344BB61BB6803F00103002B83
:10426C0003D07B681B09DBB20EE0BB691B785BB229
:10427C0023F00F035AB27B681B0A5BB203F00F03E7
:10428C005BB213435BB2DBB2BA691370FB6803F524
:10429C00805301221A719CE0FB6803F580531A6A63
:1042AC00FB6803F580535B895B089BB21946BB68BE
:1042BC00B3FBF1F313441946F868FFF72BFD0346E3
:1042CC00FB77FB7F002B40F08180BB685B00FA68BA
:1042DC0002F580525289B3FBF2F101FB02F29B1AF8
:1042EC00FA681344BB617B68DAB2BB691A707B68ED
:1042FC009BB21B0A9AB2BB690133D2B21A70FB682B
:10430C0003F5805301221A7163E0FB6803F58053B7
:10431C001A6AFB6803F580535B899B089BB21946AC
:10432C00BB68B3FBF1F313441946F868FFF7F2FCD2
:10433C000346FB77FB7F002B4AD1BB689B00FA68D6
:10434C0002F580525289B3FBF2F101FB02F29B1A87
:10435C00FA681344BB61BB6903331B781A06BB694B
:10436C0002331B781B041A43BB6901331B781B02F5
:10437C001343BA691278134303F070437A681343FA
:10438C007B607B68DAB2BB691A707B689BB21B0AD4
:10439C009AB2BB690133D2B21A707B681A0CBB6932
:1043AC000233D2B21A707B681A0EBB690333D2B2D5
:1043BC001A70FB6803F5805301221A7109E002237D
:1043CC00FB7706E000BF04E000BF02E000BF00E0A6
:1043DC0000BFFB7F18462037BD4680BD80B584B03A
:1043EC0000AF786039603B68012B06D97B6803F518
:1043FC0080535B693A689A4202D30223FB7349E00B
:10440C000023FB733BE039687868FFF798FDB860D0
:10441C00BB68002B3BD0BB68012B02D10223FB7382
:10442C0038E0BB68B3F1FF3F02D10123FB7331E0ED
:10443C00002239687868FFF77EFE0346FB73FB7B2E
:10444C00002B26D17B6803F580531B69B3F1FF3F2A
:10445C0013D07B6803F580531B6901337A6802F52E
:10446C00805213617B6803F580535B7943F0010341
:10447C00DAB27B6803F580535A71BB683B607B688A
:10448C0003F580535B693A689A42BCD302E000BFE3
:10449C0000E000BFFB7B18461037BD4680BD80B5E1
:1044AC0086B000AF786039603B68002B11D17B6817
:1044BC0003F58053DB683B613B69002B06D07B68BE
:1044CC0003F580535B693A699A421DD301233B6122
:1044DC001AE039687868FFF732FDB860BB68012BC9
:1044EC0001D801237FE0BB68B3F1FF3F01D1BB686A
:1044FC0079E07B6803F580535B69BA689A4201D214
:10450C00BB6870E03B683B613B697B617B69013355
:10451C007B617B6803F580535B697A699A4207D3A8
:10452C0002237B617A693B699A4201D900235AE0E4
:10453C0079697868FFF703FDB860BB68002B0ED073
:10454C00BB68B3F1FF3F02D0BB68012B01D1BB6844
:10455C0049E07A693B699A42D8D1002343E000BF15
:10456C006FF0704279697868FFF7E5FD0346FB73DD
:10457C00FB7B002B09D13B68002B06D07A6939688C
:10458C007868FFF7D8FD0346FB73FB7B002B21D12A
:10459C007B6803F580531A467B69D3607B6803F50F
:1045AC0080531B69B3F1FF3F1CD07B6803F580532C
:1045BC001B69013B7A6802F5805213617B6803F535
:1045CC0080535B7943F00103DAB27B6803F58053C7
:1045DC005A7107E0FB7B012B02D14FF0FF3300E057
:1045EC0001237B617B6918461837BD4680BD80B4BA
:1045FC0087B000AF786039607B6803F580535B6AE5
:10460C0004333B617B6803F580531B6803F58053CF
:10461C005B891A463B68B3FBF2F37A6802F5805269
:10462C00126802F580529278B3FBF2F37B613B691E
:10463C001A1D3A611B68FB60FB68002B01D100233B
:10464C0010E07A69FB689A4207D37A69FB68D31A3F
:10465C007B613B6904333B61E9E700BF3B691A6846
:10466C007B69134418461C37BD4680BC704780B527
:10467C0086B000AF786039603B689AB27B6803F50E
:10468C008053DA807B6803F580539B687B617B6980
:10469C00012B09D07B6803F580531B6803F580530D
:1046AC005B697A699A4201D30223AAE07B69002BE9
:1046BC0010D17B6803F580531B6803F580531B787E
:1046CC00032B07D17B6803F580531B6803F58053DC
:1046DC005B6A7B617B69002B15D17B6803F580538A
:1046EC001B6803F580531B891A463B68934201D320
:1046FC00022386E07B6803F580531B6803F5805327
:10470C005B6A3B6143E07B6803F580531B6803F5F0
:10471C0080535B895B099BB21A467B6803F5805317
:10472C001B6803F580539B7802FB03F3FB6021E0CD
:10473C007B6803F580531B6879691846FFF7FFFB0C
:10474C0078617B69B3F1FF3F01D1012359E07B69AB
:10475C00012B09D97B6803F580531B6803F5805343
:10476C005B697A699A4201D302234AE03A68FB6892
:10477C00D31A3B603A68FB689A42D9D27B6803F53E
:10478C0080531B6879691846FFF7B5FB38617B6865
:10479C0003F580531A467B69D3603B69002B01D12A
:1047AC0002232EE07B6803F580531B6803F58053CE
:1047BC005B895B099BB21A463B68B3FBF2F23B691F
:1047CC0013447A6802F5805213617B6803F58053B9
:1047DC001B6818467B6803F580531B6803F58053F0
:1047EC005B895B099BB21A463B68B3FBF2F101FB98
:1047FC0002F29B1A5B0103447A6802F58052536102
:10480C00002318461837BD4680BD90B587B000AF61
:10481C00786039607B6803F58053DB880133FB607B
:10482C00FB689BB2002B05D07B6803F580531B699A
:10483C00002B01D104232EE17B6803F580531B6808
:10484C0003F580535B895B099BB21A46FB68B3FB8B
:10485C00F2F101FB02F29B1A002B40F0FA807B680C
:10486C0003F580531B6901337A6802F5805213619A
:10487C007B6803F58053DB68002B0DD17B6803F557
:10488C0080531B6803F580531B891A46FB689342BF
:10489C00C0F0DF800423FEE07B6803F580531B68C7
:1048AC0003F580535B895B099BB21A46FB68B3FB2B
:1048BC00F2F37A6802F58052126802F5805292780F
:1048CC00013A1340002B40F0C4807B6803F5805301
:1048DC001A687B6803F58053DB6819461046FFF7AE
:1048EC002EFB78617B69012B01D80223D3E07B6915
:1048FC00B3F1FF3F01D10123CDE07B6803F5805379
:10490C001B6803F580535B697A699A42C0F08E800C
:10491C003B68002B01D10423BDE07B6803F5805379
:10492C001A687B6803F58053DB6819461046FFF75D
:10493C00B6FD78617B69002B01D10723ABE07B6965
:10494C00012B01D10223A6E07B69B3F1FF3F01D11A
:10495C000123A0E07B6803F580531B681846FFF722
:10496C0087F90346002B01D0012394E07B6803F503
:10497C0080531B6818467B6803F580531B6803F54E
:10498C0080535B891A460021FEF75AFF7B6803F5BA
:10499C0080531A687B6803F580531C68796910464C
:1049AC00FFF7A9FA034604F58052D36200233B615A
:1049BC0021E07B6803F580531B6803F580530122CB
:1049CC001A717B6803F580531B681846FFF750F982
:1049DC000346002B01D001235DE07B6803F5805377
:1049EC001B6803F58052D26A013203F58053DA62F8
:1049FC003B6901333B617B6803F580531B6803F50E
:104A0C0080539B781A463B699342D2D37B6803F55B
:104A1C0080531B6803F58053D96A7B6803F5805378
:104A2C001A683B69CB1A02F58052D3627B6803F596
:104A3C0080531A467B69D3607B6803F580531B68EF
:104A4C0079691846FFF757FA02467B6803F58053DD
:104A5C001A61FB689AB27B6803F58053DA807B6835
:104A6C0003F580531B6818467B6803F580531B685D
:104A7C0003F580535B895B099BB21A46FB68B3FB59
:104A8C00F2F101FB02F29B1A5B0103447A6802F516
:104A9C0080525361002318461C37BD4690BD80B52B
:104AAC0084B000AF7860396000217868FFF7DFFDD3
:104ABC000346FB73FB7B002B35D10023BB607B686B
:104ACC0003F580531A687B6803F580531B691946FC
:104ADC001046FFF71FF90346FB73FB7B002B21D11C
:104AEC007B6803F580535B691B78E52B06D07B68EC
:104AFC0003F580535B691B78002B07D1BB6801332E
:104B0C00BB60BA683B689A4202D10CE00023BB60E0
:104B1C0001217868FFF779FE0346FB73FB7B002BC2
:104B2C00CDD000E000BFFB7B042B01D10723FB732E
:104B3C00FB7B18461037BD4680BD80B485B000AFF6
:104B4C00786039603B681B331B781BB21B021AB2AE
:104B5C003B681A331B781BB213431BB29BB2FB602E
:104B6C007B6803F580531B78032B10D13B681533FE
:104B7C001B781BB21B021AB23B6814331B781BB296
:104B8C0013431BB29BB21B04FA681343FB60FB6814
:104B9C0018461437BD4680BC704780B483B000AF54
:104BAC00786039607B681A333A68D2B21A703B6805
:104BBC009BB21B0A9AB27B681B33D2B21A703B6849
:104BCC001A0C7B681433D2B21A703B681B0C9BB264
:104BDC001B0A9AB27B681533D2B21A7000BF0C371D
:104BEC00BD4680BC7047000080B586B000AF7860D1
:104BFC0039603B681B7823F040035A1E13465B0058
:104C0C0013449B0013447B6100233B610123FB8114
:104C1C002B4A3B6913441B7801333A6813441B78C5
:104C2C001BB21B021AB226493B690B441B7819466E
:104C3C003B680B441B781BB213431BB2BB81FB8933
:104C4C00002B19D0BB89184602F0CEFB0346FB8122
:104C5C007B69FE2B0ED87B695A1C7A615B007A68E3
:104C6C0013441B88184602F0BFFB03461A46FB8907
:104C7C00934208D000231FE0BB894FF6FF7293428A
:104C8C0001D0002318E03B6901333B613B690C2BDD
:104C9C00BED93B681B7803F04003002B0BD0FB897B
:104CAC00002B08D07B695B007A6813441B88002BAF
:104CBC0001D0002300E0012318461837BD4680BD03
:104CCC000093000880B489B000AFF860B960114659
:104CDC001A460B46FB711346BB71BB680D33BA7990
:104CEC001A70BB680B330F221A70BB680C3300228E
:104CFC001A70BB681A3300221A70BB681B3300226F
:104D0C001A70FB795A1E13465B0013449B00134424
:104D1C00FB610023FB820023BB61FB8A4FF6FF7211
:104D2C00934207D0FB695A1CFA615B00FA68134482
:104D3C001B88FB821C4ABB6913441B781A46BB6850
:104D4C001344FA8AD2B21A70FB8A1B0A99B2164A19
:104D5C00BB6913441B780133BA681344CAB21A7086
:104D6C00FB8A002B02D14FF6FF73FB82BB69013328
:104D7C00BB61BB690C2BD0D9FB8A4FF6FF729342F7
:104D8C0006D0FB695B00FA6813441B88002B03D127
:104D9C00FB7943F04003FB71BB68FA791A7000BFD2
:104DAC002437BD4680BC70470093000880B58CB09A
:104DBC0000AFF860B9607A603B600B22B968F868A4
:104DCC00FEF720FD3B68052B2BD93B68FB6122E0ED
:104DDC007B689A1C7A601B887B840023BB6217E07B
:104DEC00FB695A007B8C03F001031344FB617B8C41
:104DFC005B087B84FB6903F48033002B05D0FB69D3
:104E0C0083F4883383F02103FB61BB6A0133BB62FB
:104E1C00BB6A0F2BE4D97B681B88002BD8D1FB69AC
:104E2C003B600723BB623B68DBB203F00F03DBB2D2
:104E3C00303387F82F3097F82F30392B04D997F867
:104E4C002F30073387F82F30BB6A5A1EBA623033C3
:104E5C003B4497F82F2003F81C2C3B681B093B6044
:104E6C003B68002BDFD107F11402BB6A13447E228E
:104E7C001A7000237B6202E07B6A01337B627A6AE0
:104E8C00BB6A9A4205D2FA687B6A13441B78202BC2
:104E9C00F2D1BB6A072B07D8BB6A5A1CBA623033F3
:104EAC003B4413F81C1C00E020217B6A5A1C7A62DC
:104EBC00FA6813440A461A707B6A072BE9D900BFBB
:104ECC0000BF3037BD4680BD80B485B000AF786080
:104EDC000023FB730B23BB60FB7BDAB25208DB01B4
:104EEC001343DAB27B68591C79601B781344FB734B
:104EFC00BB68013BBB60BB68002BEDD1FB7B18464C
:104F0C001437BD4680BC704780B586B000AF786062
:104F1C0000217868FFF7ABFB0346FB75FB7D002B8C
:104F2C0001D0FB7DB8E0FF233B753B7D7B757B6837
:104F3C0003F580534FF6FF729A847B6803F5805318
:104F4C001A687B6803F580531B6919461046FEF7F7
:104F5C00E1FE0346FB75FB7D002B40F097807B68E0
:104F6C0003F580535B693B613B691B78BB75BB7D6B
:104F7C00002B02D10423FB758DE03B690B331B78AE
:104F8C0003F03F03FB73BB7DE52B07D0FB7B03F0EA
:104F9C000803002B0BD0FB7B0F2B08D0FF237B755A
:104FAC007B6803F580534FF6FF729A8463E0FB7BBA
:104FBC000F2B37D17B6803F580531B6A002B5AD01B
:104FCC00BB7D03F04003002B10D03B695B7B3B7532
:104FDC00BB7D23F04003BB75BB7D7B757B6803F504
:104FEC008053DA887B6803F580539A84BA7D7B7D85
:104FFC009A4214D13B690D331B783A7D9A420ED1FB
:10500C007B6803F580531B6A39691846FFF7ECFD82
:10501C000346002B03D07B7D013BDBB200E0FF237A
:10502C007B7528E07B7D002B07D13869FFF74CFF9F
:10503C0003461A463B7D93422AD07B6803F5805386
:10504C009B690B331B7803F00103002B0BD17B689E
:10505C0003F580539B690B2219463869FEF70AFC4D
:10506C000346002B16D0FF237B757B6803F580531A
:10507C004FF6FF729A8400217868FFF7C6FB03464F
:10508C00FB75FB7D002B3FF458AF04E000BF02E042
:10509C0000BF00E000BFFB7D18461837BD4680BD41
:1050AC0080B58CB000AF78607B6803F580539B694A
:1050BC003B627B6803F580531B6AFB6107F10C03B1
:1050CC000C22396A1846FEF79DFBFB7D03F00103A9
:1050DC00002B3BD03B6A0B3300221A707B6803F524
:1050EC0080531A46002313620123BB6213E007F1BD
:1050FC000C01BB6AFA69386AFFF758FE7868FFF74B
:10510C0003FF034687F82F3097F82F30002B06D17A
:10511C00BB6A0133BB62BB6A632BE8D900E000BFFA
:10512C00BB6A642B01D10723D8E097F82F30042BEE
:10513C0002D097F82F30D1E03B6A0B33FA7D1A700E
:10514C007B6803F580531A46FB691362FB7D03F001
:10515C000203002B14D00023BB6202E0BB6A0133B4
:10516C00BB62BB6A5B00FA6913441B88002BF5D148
:10517C00BB6A19335B4AA2FB03239B087B6201E0E9
:10518C0001237B62796A7868FFF789FC034687F80C
:10519C002F3097F82F30002B5BD17B6A013B7B6261
:1051AC007B6A002B55D07B6803F58053DB881A464D
:1051BC007B6AD31A19467868FFF759FA034687F8C1
:1051CC002F3097F82F30002B43D17B6803F5805399
:1051DC009B691846FFF778FE0346FB767B6803F560
:1051EC0080531A687B6803F580531B691946104677
:1051FC00FEF790FD034687F82F3097F82F30002BE1
:10520C0026D17B6803F58053186A7B6803F58053BD
:10521C0059697B6ADAB2FB7EFFF754FD7B6803F5B4
:10522C0080531B6803F5805301221A7100217868A2
:10523C00FFF7EBFA034687F82F3097F82F30002B47
:10524C0007D17B6A013B7B627B6A002BC6D100E0F5
:10525C0000BF97F82F30002B3ED17B6803F58053AD
:10526C001A687B6803F580531B6919461046FEF7D4
:10527C0051FD034687F82F3097F82F30002B2BD198
:10528C007B6803F580535B69202200211846FEF7EA
:10529C00D7FA7B6803F5805358697B6803F5805314
:1052AC009B690B221946FEF7ADFA7B6803F5805318
:1052BC009B690B331A787B6803F580535B690C335D
:1052CC0002F01802D2B21A707B6803F580531B6887
:1052DC0003F5805301221A7197F82F301846303796
:1052EC00BD4680BD4FECC44E80B58AB000AF78602F
:1052FC0039603B681B683B6102E03B6901333B61F1
:10530C003B691B782F2BF8D03B691B785C2BF4D0B6
:10531C007B6803F580531B6AFB6000237B617B6910
:10532C00BB61BB695A1CBA613A6913441B78BB84D4
:10533C00BB8C1F2B2FD9BB8C2F2B2CD0BB8C5C2B5D
:10534C0029D07B69FE2B01D9062386E1BB8CDBB20D
:10535C00BB84BB8C0121184602F00CF80346BB84BD
:10536C00BB8C002B01D1062377E1BB8C7F2B09D89A
:10537C00BB8C19468E48FEF7A3FA0346002B01D0CE
:10538C0006236AE17B695A1C7A615B00FA68134454
:10539C00BA8C1A80C5E73A69BB691A443B681A6033
:1053AC00BB8C1F2B01D8042300E0002387F8273087
:1053BC0011E07B6903F10043013B5B00FA68134485
:1053CC001B88BB84BB8C202B02D0BB8C2E2B06D114
:1053DC007B69013B7B617B69002BEAD100E000BF5C
:1053EC007B69002B01D1062337E17B695B00FA68EE
:1053FC00134400221A807B6803F580539B690B22AF
:10540C0020211846FEF71CFA0023BB6102E0BB69A1
:10541C000133BB61BB695B00FA6813441B88202B0A
:10542C00F5D0BB695B00FA6813441B882E2BEED0B9
:10543C00BB69002B09D097F8273043F0030387F89A
:10544C00273002E07B69013B7B617B69002B09D033
:10545C007B6903F10043013B5B00FA6813441B8832
:10546C002E2BEFD100233B62002387F82630082334
:10547C00FB61BB695A1CBA615B00FA6813441B8858
:10548C00BB84BB8C002B00F09180BB8C202B06D0F6
:10549C00BB8C2E2B0AD1BA697B699A4206D097F83D
:1054AC00273043F0030387F827307EE03A6AFB6924
:1054BC009A4203D2BA697B699A4223D1FB690B2BBE
:1054CC0006D197F8273043F0030387F8273076E0AE
:1054DC00BA697B699A4205D097F8273043F00303E9
:1054EC0087F82730BA697B699A4267D87B69BB61B8
:1054FC0008233B620B23FB6197F826309B0087F84F
:10550C00263052E0BB8C7F2B14D9BB8C0021184663
:10551C0001F030FF0346BB84BB8C002B04D0BB8C4A
:10552C00803B244AD35CBB8497F8273043F00203BA
:10553C0087F82730BB8C002B07D0BB8C19461E4834
:10554C00FEF7BEF90346002B08D05F23BB8497F807
:10555C00273043F0030387F827301BE0BB8C402B2C
:10556C0009D9BB8C5A2B06D897F8263043F0020386
:10557C0087F826300EE0BB8C602B0BD9BB8C7A2BBA
:10558C0008D897F8263043F0010387F82630BB8CF7
:10559C00203BBB847B6803F580539A693B6A591C9A
:1055AC0039621344BA8CD2B21A7062E700BF06E0BB
:1055BC000C920008809200081892000800BF7B68CB
:1055CC0003F580539B691B78E52B05D17B6803F5AC
:1055DC0080539B6905221A70FB69082B04D197F83C
:1055EC0026309B0087F8263097F8263003F00C0302
:1055FC000C2B05D097F8263003F00303032B05D1B1
:10560C0097F8273043F0020387F8273097F82730B4
:10561C0003F00203002B17D197F8263003F0030395
:10562C00012B05D197F8273043F0100387F827306A
:10563C0097F8263003F00C03042B05D197F827308C
:10564C0043F0080387F827307B6803F580539B6988
:10565C000B3397F827201A70002318462837BD46BD
:10566C0080BD00BF80B584B000AF786039603B6806
:10567C001B782F2B03D03B681B785C2B02D13B682B
:10568C0001333B607B6803F580531A46002393601B
:10569C003B681B781F2B0CD800217868FEF7E7FFBE
:1056AC000346FB737B6803F580531A460023536152
:1056BC0049E03B4619467868FFF716FE0346FB7334
:1056CC00FB7B002B3AD17868FFF71EFC0346FB737B
:1056DC007B6803F580539B69DB7ABB73FB7B002BE8
:1056EC000AD0FB7B042B2BD1BB7B03F00403002BD8
:1056FC0026D10523FB7323E0BB7B03F00403002BB3
:10570C0020D17B6803F580535B69BB60BB680B33AE
:10571C001B7803F01003002B02D10523FB7312E05E
:10572C007B6803F580531B68B9681846FFF705FAC8
:10573C0002467B6803F580539A60BAE700BF02E02B
:10574C0000BF00E000BFFB7B18461037BD4680BD94
:10575C0080B487B000AF78604FF0FF333B617B685B
:10576C001B68002B31D07B681B687B6102E07B6976
:10577C0001337B617B691B781F2B03D97B691B78F9
:10578C003A2BF4D17B691B783A2B1CD17B681B68B4
:10579C00FB60FB685A1CFA601B78303BBB60BB6833
:1057AC00092B0ED8FA687B699A420AD1BB68002B88
:1057BC0007D1BB683B617B6901337B617B687A698C
:1057CC001A603B6902E000233B613B6918461C37B9
:1057DC00BD4680BC7047000080B582B000AF7860D9
:1057EC0039607B6803F5805300221A717B6803F5DE
:1057FC0080531A464FF0FF33D36239687868FEF74E
:10580C0089FA0346002B01D003234BE07B6803F598
:10581C00FF7301331B781BB21B021AB27B6893F81F
:10582C00FE311BB213431BB2204A934201D0022318
:10583C0038E07B68363303331B781A067B683633C3
:10584C0002331B781B041A437B68363301331B78F5
:10585C001B0213437A6892F83620134323F07F43DC
:10586C00134A934201D100231CE07B68523303336B
:10587C001B781A067B68523302331B781B041A43BD
:10588C007B68523301331B781B0213437A6892F8FE
:10589C005220134323F07F43054A934201D1002346
:1058AC0000E0012318460837BD4680BD55AAFFFF0E
:1058BC004641540080B596B000AFF860B96013460D
:1058CC00FB71FB6800221A60B868FFF741FFF863B0
:1058DC00FB6B002B01DA0B2318E3994AFB6B52F894
:1058EC002330BB63BB6B002B01D10C230EE3FB6895
:1058FC00BA6B1A60BB6B03F580531B78002B1CD062
:10590C00BB6B03F580535B781846FDF7DDFE034651
:10591C0087F8373097F8373003F00103002B0CD1A0
:10592C00FB79002B07D097F8373003F00403002BDA
:10593C0001D00A23EAE20023E8E2BB6B03F58053B3
:10594C0000221A70FB6BDAB2BB6B03F580535A70F2
:10595C00BB6B03F580535B781846FDF7CFFE03460F
:10596C0087F8373097F8373003F00103002B01D05C
:10597C000323CBE2FB79002B07D097F8373003F0E9
:10598C000403002B01D00A23C0E2BB6B03F5805348
:10599C005878BB6B03F580530A331A460221FDF786
:1059AC0013FF0346002B0DD1BB6B03F580535B89B2
:1059BC00B3F5007F06D3BB6B03F580535B89B3F55E
:1059CC00805F01D90123A1E200233B65396DB86BDF
:1059DC00FFF702FF034687F8573097F85730012B33
:1059EC0053D100233B6428E0BA6B3B6C1B0103F5DD
:1059FC00DF7313443B633B6B04331B78002B12D0D7
:105A0C003B6B0B331B781A063B6B0A331B781B045E
:105A1C001A433B6B09331B781B0213433A6B083256
:105A2C0012781A4300E000223B6C9B0058333B4435
:105A3C0043F8442C3B6C01333B643B6C032BD3D9B4
:105A4C0000233B643B6C002B02D03B6C013B3B6462
:105A5C003B6C9B0058333B4453F8443C3B653B6DDB
:105A6C00002B05D0396DB86BFFF7B6FE034600E08E
:105A7C00022387F8573097F85730002B05D03B6C32
:105A8C0001333B643B6C032BE2D997F85730032B63
:105A9C0001D101233AE297F85730002B01D00D23A6
:105AAC0034E2BB6B1B7B1BB21B021AB2BB6BDB7AE7
:105ABC001BB213431AB2BB6B03F580535B891BB249
:105ACC009A4201D00D2321E2BB6BDB7D1BB21B0282
